{
    "_format": "hh-sol-artifact-1",
    "contractName": "Lock",
    "sourceName": "contracts/Lock.sol",
    "abi": [
        {
            "anonymous": false,
            "inputs": [
                {
                    "indexed": false,
                    "internalType": "address",
                    "name": "owner",
                    "type": "address"
                },
                {
                    "indexed": false,
                    "internalType": "string",
                    "name": "title",
                    "type": "string"
                },
                {
                    "indexed": false,
                    "internalType": "string",
                    "name": "description",
                    "type": "string"
                },
                {
                    "indexed": false,
                    "internalType": "uint256",
                    "name": "targetAmount",
                    "type": "uint256"
                },
                {
                    "indexed": false,
                    "internalType": "uint256",
                    "name": "deadline",
                    "type": "uint256"
                },
                {
                    "indexed": false,
                    "internalType": "uint256",
                    "name": "id",
                    "type": "uint256"
                }
            ],
            "name": "campaignEvents",
            "type": "event"
        },
        {
            "inputs": [
                {
                    "internalType": "string",
                    "name": "_title",
                    "type": "string"
                },
                {
                    "internalType": "string",
                    "name": "_description",
                    "type": "string"
                },
                {
                    "internalType": "uint256",
                    "name": "_targetAmount",
                    "type": "uint256"
                },
                {
                    "internalType": "uint256",
                    "name": "_deadline",
                    "type": "uint256"
                }
            ],
            "name": "createCampagin",
            "outputs": [],
            "stateMutability": "nonpayable",
            "type": "function"
        },
        {
            "inputs": [
                {
                    "internalType": "uint256",
                    "name": "_id",
                    "type": "uint256"
                }
            ],
            "name": "donateToCampaign",
            "outputs": [],
            "stateMutability": "payable",
            "type": "function"
        },
        {
            "inputs": [],
            "name": "getCampaigns",
            "outputs": [
                {
                    "components": [
                        {
                            "internalType": "address",
                            "name": "owner",
                            "type": "address"
                        },
                        {
                            "internalType": "string",
                            "name": "title",
                            "type": "string"
                        },
                        {
                            "internalType": "string",
                            "name": "description",
                            "type": "string"
                        },
                        {
                            "internalType": "uint256",
                            "name": "targetAmount",
                            "type": "uint256"
                        },
                        {
                            "internalType": "uint256",
                            "name": "deadline",
                            "type": "uint256"
                        },
                        {
                            "internalType": "uint256",
                            "name": "amountCollected",
                            "type": "uint256"
                        },
                        {
                            "internalType": "address[]",
                            "name": "donators",
                            "type": "address[]"
                        },
                        {
                            "internalType": "uint256[]",
                            "name": "donations",
                            "type": "uint256[]"
                        },
                        {
                            "internalType": "uint256",
                            "name": "id",
                            "type": "uint256"
                        }
                    ],
                    "internalType": "struct CrowdFundingOpt.Campaign[]",
                    "name": "",
                    "type": "tuple[]"
                }
            ],
            "stateMutability": "view",
            "type": "function"
        },
        {
            "inputs": [
                {
                    "internalType": "uint256",
                    "name": "_id",
                    "type": "uint256"
                }
            ],
            "name": "getDonators",
            "outputs": [
                {
                    "internalType": "address[]",
                    "name": "",
                    "type": "address[]"
                },
                {
                    "internalType": "uint256[]",
                    "name": "",
                    "type": "uint256[]"
                }
            ],
            "stateMutability": "view",
            "type": "function"
        }
    ],
    "bytecode": "0x60806040526000805534801561001457600080fd5b5061156a806100246000396000f3fe60806040526004361061003f5760003560e01c80630fa91fa91461004457806322e5ac991461008257806342a4fda8146100ab578063a6b03633146100c7575b600080fd5b34801561005057600080fd5b5061006b600480360381019061006691906108ad565b6100f2565b604051610079929190610a88565b60405180910390f35b34801561008e57600080fd5b506100a960048036038101906100a49190610c05565b610204565b005b6100c560048036038101906100c091906108ad565b61034f565b005b3480156100d357600080fd5b506100dc6104b9565b6040516100e99190610f9d565b60405180910390f35b6060806001600084815260200190815260200160002060060160016000858152602001908152602001600020600701818054806020026020016040519081016040528092919081815260200182805480156101a257602002820191906000526020600020905b8160009054906101000a900473ffffffffffffffffffffffffffffffffffffffff1673ffffffffffffffffffffffffffffffffffffffff1681526020019060010190808311610158575b50505050509150808054806020026020016040519081016040528092919081815260200182805480156101f457602002820191906000526020600020905b8154815260200190600101908083116101e0575b5050505050905091509150915091565b428111610246576040517f08c379a000000000000000000000000000000000000000000000000000000000815260040161023d9061101c565b60405180910390fd5b600060016000805481526020019081526020016000209050338160000160006101000a81548173ffffffffffffffffffffffffffffffffffffffff021916908373ffffffffffffffffffffffffffffffffffffffff160217905550848160010190816102b29190611248565b50838160020190816102c49190611248565b5082816003018190555081816004018190555060005481600801819055506000808154809291906102f490611349565b91905055507f07b40c313f4f7b59a27eb386f528a9295ba43095a82602f8356e291e4eeb15613386868686600160005461032e9190611391565b6040516103409695949392919061141c565b60405180910390a15050505050565b6000349050600060016000848152602001908152602001600020905060008160000160009054906101000a900473ffffffffffffffffffffffffffffffffffffffff16905060008173ffffffffffffffffffffffffffffffffffffffff16846040516103ba906114bc565b60006040518083038185875af1925050503d80600081146103f7576040519150601f19603f3d011682016040523d82523d6000602084013e6103fc565b606091505b5050905080156104b25782600601339080600181540180825580915050600190039060005260206000200160009091909190916101000a81548173ffffffffffffffffffffffffffffffffffffffff021916908373ffffffffffffffffffffffffffffffffffffffff16021790555082600701849080600181540180825580915050600190039060005260206000200160009091909190915055838360050160008282546104aa91906114d1565b925050819055505b5050505050565b60606000805467ffffffffffffffff8111156104d8576104d7610ada565b5b60405190808252806020026020018201604052801561051157816020015b6104fe610801565b8152602001906001900390816104f65790505b50905060005b6000548110156107f957600060016000838152602001908152602001600020905080604051806101200160405290816000820160009054906101000a900473ffffffffffffffffffffffffffffffffffffffff1673ffffffffffffffffffffffffffffffffffffffff1673ffffffffffffffffffffffffffffffffffffffff1681526020016001820180546105ab9061106b565b80601f01602080910402602001604051908101604052809291908181526020018280546105d79061106b565b80156106245780601f106105f957610100808354040283529160200191610624565b820191906000526020600020905b81548152906001019060200180831161060757829003601f168201915b5050505050815260200160028201805461063d9061106b565b80601f01602080910402602001604051908101604052809291908181526020018280546106699061106b565b80156106b65780601f1061068b576101008083540402835291602001916106b6565b820191906000526020600020905b81548152906001019060200180831161069957829003601f168201915b505050505081526020016003820154815260200160048201548152602001600582015481526020016006820180548060200260200160405190810160405280929190818152602001828054801561076257602002820191906000526020600020905b8160009054906101000a900473ffffffffffffffffffffffffffffffffffffffff1673ffffffffffffffffffffffffffffffffffffffff1681526020019060010190808311610718575b50505050508152602001600782018054806020026020016040519081016040528092919081815260200182805480156107ba57602002820191906000526020600020905b8154815260200190600101908083116107a6575b505050505081526020016008820154815250508383815181106107e0576107df611505565b5b6020026020010181905250508080600101915050610517565b508091505090565b604051806101200160405280600073ffffffffffffffffffffffffffffffffffffffff16815260200160608152602001606081526020016000815260200160008152602001600081526020016060815260200160608152602001600081525090565b6000604051905090565b600080fd5b600080fd5b6000819050919050565b61088a81610877565b811461089557600080fd5b50565b6000813590506108a781610881565b92915050565b6000602082840312156108c3576108c261086d565b5b60006108d184828501610898565b91505092915050565b600081519050919050565b600082825260208201905092915050565b6000819050602082019050919050565b600073ffffffffffffffffffffffffffffffffffffffff82169050919050565b600061093182610906565b9050919050565b61094181610926565b82525050565b60006109538383610938565b60208301905092915050565b6000602082019050919050565b6000610977826108da565b61098181856108e5565b935061098c836108f6565b8060005b838110156109bd5781516109a48882610947565b97506109af8361095f565b925050600181019050610990565b5085935050505092915050565b600081519050919050565b600082825260208201905092915050565b6000819050602082019050919050565b6109ff81610877565b82525050565b6000610a1183836109f6565b60208301905092915050565b6000602082019050919050565b6000610a35826109ca565b610a3f81856109d5565b9350610a4a836109e6565b8060005b83811015610a7b578151610a628882610a05565b9750610a6d83610a1d565b925050600181019050610a4e565b5085935050505092915050565b60006040820190508181036000830152610aa2818561096c565b90508181036020830152610ab68184610a2a565b90509392505050565b600080fd5b600080fd5b6000601f19601f8301169050919050565b7f4e487b7100000000000000000000000000000000000000000000000000000000600052604160045260246000fd5b610b1282610ac9565b810181811067ffffffffffffffff82111715610b3157610b30610ada565b5b80604052505050565b6000610b44610863565b9050610b508282610b09565b919050565b600067ffffffffffffffff821115610b7057610b6f610ada565b5b610b7982610ac9565b9050602081019050919050565b82818337600083830152505050565b6000610ba8610ba384610b55565b610b3a565b905082815260208101848484011115610bc457610bc3610ac4565b5b610bcf848285610b86565b509392505050565b600082601f830112610bec57610beb610abf565b5b8135610bfc848260208601610b95565b91505092915050565b60008060008060808587031215610c1f57610c1e61086d565b5b600085013567ffffffffffffffff811115610c3d57610c3c610872565b5b610c4987828801610bd7565b945050602085013567ffffffffffffffff811115610c6a57610c69610872565b5b610c7687828801610bd7565b9350506040610c8787828801610898565b9250506060610c9887828801610898565b91505092959194509250565b600081519050919050565b600082825260208201905092915050565b6000819050602082019050919050565b600081519050919050565b600082825260208201905092915050565b60005b83811015610d0a578082015181840152602081019050610cef565b60008484015250505050565b6000610d2182610cd0565b610d2b8185610cdb565b9350610d3b818560208601610cec565b610d4481610ac9565b840191505092915050565b600082825260208201905092915050565b6000610d6b826108da565b610d758185610d4f565b9350610d80836108f6565b8060005b83811015610db1578151610d988882610947565b9750610da38361095f565b925050600181019050610d84565b5085935050505092915050565b600082825260208201905092915050565b6000610dda826109ca565b610de48185610dbe565b9350610def836109e6565b8060005b83811015610e20578151610e078882610a05565b9750610e1283610a1d565b925050600181019050610df3565b5085935050505092915050565b600061012083016000830151610e466000860182610938565b5060208301518482036020860152610e5e8282610d16565b91505060408301518482036040860152610e788282610d16565b9150506060830151610e8d60608601826109f6565b506080830151610ea060808601826109f6565b5060a0830151610eb360a08601826109f6565b5060c083015184820360c0860152610ecb8282610d60565b91505060e083015184820360e0860152610ee58282610dcf565b915050610100830151610efc6101008601826109f6565b508091505092915050565b6000610f138383610e2d565b905092915050565b6000602082019050919050565b6000610f3382610ca4565b610f3d8185610caf565b935083602082028501610f4f85610cc0565b8060005b85811015610f8b5784840389528151610f6c8582610f07565b9450610f7783610f1b565b925060208a01995050600181019050610f53565b50829750879550505050505092915050565b60006020820190508181036000830152610fb78184610f28565b905092915050565b600082825260208201905092915050565b7f446561646c696e652073686f756c6420626520696e2066757475726500000000600082015250565b6000611006601c83610fbf565b915061101182610fd0565b602082019050919050565b6000602082019050818103600083015261103581610ff9565b9050919050565b7f4e487b7100000000000000000000000000000000000000000000000000000000600052602260045260246000fd5b6000600282049050600182168061108357607f821691505b6020821081036110965761109561103c565b5b50919050565b60008190508160005260206000209050919050565b60006020601f8301049050919050565b600082821b905092915050565b6000600883026110fe7fffffffffffffffffffffffffffffffffffffffffffffffffffffffffffffffff826110c1565b61110886836110c1565b95508019841693508086168417925050509392505050565b6000819050919050565b600061114561114061113b84610877565b611120565b610877565b9050919050565b6000819050919050565b61115f8361112a565b61117361116b8261114c565b8484546110ce565b825550505050565b600090565b61118861117b565b611193818484611156565b505050565b5b818110156111b7576111ac600082611180565b600181019050611199565b5050565b601f8211156111fc576111cd8161109c565b6111d6846110b1565b810160208510156111e5578190505b6111f96111f1856110b1565b830182611198565b50505b505050565b600082821c905092915050565b600061121f60001984600802611201565b1980831691505092915050565b6000611238838361120e565b9150826002028217905092915050565b61125182610cd0565b67ffffffffffffffff81111561126a57611269610ada565b5b611274825461106b565b61127f8282856111bb565b600060209050601f8311600181146112b257600084156112a0578287015190505b6112aa858261122c565b865550611312565b601f1984166112c08661109c565b60005b828110156112e8578489015182556001820191506020850194506020810190506112c3565b868310156113055784890151611301601f89168261120e565b8355505b6001600288020188555050505b505050505050565b7f4e487b7100000000000000000000000000000000000000000000000000000000600052601160045260246000fd5b600061135482610877565b91507fffffffffffffffffffffffffffffffffffffffffffffffffffffffffffffffff82036113865761138561131a565b5b600182019050919050565b600061139c82610877565b91506113a783610877565b92508282039050818111156113bf576113be61131a565b5b92915050565b6113ce81610926565b82525050565b60006113df82610cd0565b6113e98185610fbf565b93506113f9818560208601610cec565b61140281610ac9565b840191505092915050565b61141681610877565b82525050565b600060c08201905061143160008301896113c5565b818103602083015261144381886113d4565b9050818103604083015261145781876113d4565b9050611466606083018661140d565b611473608083018561140d565b61148060a083018461140d565b979650505050505050565b600081905092915050565b50565b60006114a660008361148b565b91506114b182611496565b600082019050919050565b60006114c782611499565b9150819050919050565b60006114dc82610877565b91506114e783610877565b92508282019050808211156114ff576114fe61131a565b5b92915050565b7f4e487b7100000000000000000000000000000000000000000000000000000000600052603260045260246000fdfea264697066735822122000c45506fbf4d34166b8548941dbd4ae8f446e5751ea1acdae33937aed98dd3c64736f6c63430008180033",
    "linkReferences": {},
    "deployedLinkReferences": {}
}